{
  "contractName": "JurbyCoin",
  "abi": [
    {
      "constant": true,
      "inputs": [],
      "name": "CTO",
      "outputs": [
        {
          "name": "",
          "type": "address"
        }
      ],
      "payable": false,
      "stateMutability": "view",
      "type": "function"
    },
    {
      "constant": true,
      "inputs": [],
      "name": "CEO",
      "outputs": [
        {
          "name": "",
          "type": "address"
        }
      ],
      "payable": false,
      "stateMutability": "view",
      "type": "function"
    },
    {
      "constant": true,
      "inputs": [],
      "name": "COO",
      "outputs": [
        {
          "name": "",
          "type": "address"
        }
      ],
      "payable": false,
      "stateMutability": "view",
      "type": "function"
    },
    {
      "inputs": [
        {
          "name": "_CEO",
          "type": "address"
        },
        {
          "name": "_CTO",
          "type": "address"
        },
        {
          "name": "_COO",
          "type": "address"
        }
      ],
      "payable": false,
      "stateMutability": "nonpayable",
      "type": "constructor"
    },
    {
      "constant": false,
      "inputs": [],
      "name": "donate",
      "outputs": [],
      "payable": true,
      "stateMutability": "payable",
      "type": "function"
    },
    {
      "constant": false,
      "inputs": [],
      "name": "sell",
      "outputs": [],
      "payable": true,
      "stateMutability": "payable",
      "type": "function"
    },
    {
      "constant": false,
      "inputs": [],
      "name": "buy",
      "outputs": [],
      "payable": true,
      "stateMutability": "payable",
      "type": "function"
    }
  ],
  "bytecode": "0x608060405234801561001057600080fd5b506040516060806104ca8339810180604052606081101561003057600080fd5b81019080805190602001909291908051906020019092919080519060200190929190505050826000806101000a81548173ffffffffffffffffffffffffffffffffffffffff021916908373ffffffffffffffffffffffffffffffffffffffff16021790555081600160006101000a81548173ffffffffffffffffffffffffffffffffffffffff021916908373ffffffffffffffffffffffffffffffffffffffff16021790555080600260006101000a81548173ffffffffffffffffffffffffffffffffffffffff021916908373ffffffffffffffffffffffffffffffffffffffff1602179055505050506103a1806101296000396000f3fe608060405260043610610078576000357c0100000000000000000000000000000000000000000000000000000000900463ffffffff1680633d01bdec1461007d57806345710074146100d4578063a1088571146100de578063a6f2ae3a14610135578063e1b27e6b1461013f578063ed88c68e14610196575b600080fd5b34801561008957600080fd5b506100926101a0565b604051808273ffffffffffffffffffffffffffffffffffffffff1673ffffffffffffffffffffffffffffffffffffffff16815260200191505060405180910390f35b6100dc6101c6565b005b3480156100ea57600080fd5b506100f36101c8565b604051808273ffffffffffffffffffffffffffffffffffffffff1673ffffffffffffffffffffffffffffffffffffffff16815260200191505060405180910390f35b61013d6101ed565b005b34801561014b57600080fd5b5061015461034d565b604051808273ffffffffffffffffffffffffffffffffffffffff1673ffffffffffffffffffffffffffffffffffffffff16815260200191505060405180910390f35b61019e610373565b005b600160009054906101000a900473ffffffffffffffffffffffffffffffffffffffff1681565b565b6000809054906101000a900473ffffffffffffffffffffffffffffffffffffffff1681565b6000809054906101000a900473ffffffffffffffffffffffffffffffffffffffff1673ffffffffffffffffffffffffffffffffffffffff166108fc60023481151561023457fe5b049081150290604051600060405180830381858888f19350505050158015610260573d6000803e3d6000fd5b50600160009054906101000a900473ffffffffffffffffffffffffffffffffffffffff1673ffffffffffffffffffffffffffffffffffffffff166108fc6004348115156102a957fe5b049081150290604051600060405180830381858888f193505050501580156102d5573d6000803e3d6000fd5b50600260009054906101000a900473ffffffffffffffffffffffffffffffffffffffff1673ffffffffffffffffffffffffffffffffffffffff166108fc60043481151561031e57fe5b049081150290604051600060405180830381858888f1935050505015801561034a573d6000803e3d6000fd5b50565b600260009054906101000a900473ffffffffffffffffffffffffffffffffffffffff1681565b56fea165627a7a7230582083c329aefc32b168e7813832718d2b0bac02f639fe9a736d56c15bd8ad054c110029",
  "source": "pragma solidity >=0.4.21 <0.6.0;\n\ncontract JurbyCoin {\n    address payable public CEO;\n    address payable public CTO;\n    address payable public COO;\n\n    constructor (address payable _CEO, address payable _CTO, address payable _COO) public {\n        CEO = _CEO;\n        CTO = _CTO;\n        COO = _COO;\n    }\n\n    function donate() payable public {}\n\n    function sell() payable public {}\n\n    function buy() payable public {\n        CEO.transfer(msg.value / 2);\n        CTO.transfer(msg.value / 4);\n        COO.transfer(msg.value / 4);\n    }\n}",
  "sourcePath": "/Users/omarmohamed/development/blockchain-training/contracts/JurbyCoin.sol",
  "compiler": {
    "name": "solc",
    "version": "0.5.0+commit.1d4f565a.Emscripten.clang"
  },
  "schemaVersion": "3.0.1",
  "updatedAt": "2019-01-25T09:29:21.969Z",
  "devdoc": {
    "methods": {}
  },
  "userdoc": {
    "methods": {}
  }
}