{
  "contractName": "SimpleToken",
  "abi": [
    {
      "inputs": [
        {
          "name": "_initialSupply",
          "type": "uint256"
        },
        {
          "name": "_name",
          "type": "string"
        }
      ],
      "payable": false,
      "stateMutability": "nonpayable",
      "type": "constructor",
      "signature": "constructor"
    },
    {
      "constant": false,
      "inputs": [
        {
          "name": "_to",
          "type": "address"
        },
        {
          "name": "_amount",
          "type": "uint256"
        }
      ],
      "name": "transfer",
      "outputs": [],
      "payable": false,
      "stateMutability": "nonpayable",
      "type": "function",
      "signature": "0xa9059cbb"
    },
    {
      "constant": true,
      "inputs": [
        {
          "name": "_holder",
          "type": "address"
        }
      ],
      "name": "getBalanceOf",
      "outputs": [
        {
          "name": "",
          "type": "uint256"
        }
      ],
      "payable": false,
      "stateMutability": "view",
      "type": "function",
      "signature": "0x9b96eece"
    },
    {
      "constant": true,
      "inputs": [],
      "name": "getName",
      "outputs": [
        {
          "name": "",
          "type": "string"
        }
      ],
      "payable": false,
      "stateMutability": "view",
      "type": "function",
      "signature": "0x17d7de7c"
    }
  ],
  "bytecode": "0x608060405234801561001057600080fd5b506040516105503803806105508339810180604052604081101561003357600080fd5b8101908080519060200190929190805164010000000081111561005557600080fd5b8281019050602081018481111561006b57600080fd5b815185600182028301116401000000008211171561008857600080fd5b5050929190505050816000803373ffffffffffffffffffffffffffffffffffffffff1673ffffffffffffffffffffffffffffffffffffffff1681526020019081526020016000208190555080600190805190602001906100e99291906100f1565b505050610196565b828054600181600116156101000203166002900490600052602060002090601f016020900481019282601f1061013257805160ff1916838001178555610160565b82800160010185558215610160579182015b8281111561015f578251825591602001919060010190610144565b5b50905061016d9190610171565b5090565b61019391905b8082111561018f576000816000905550600101610177565b5090565b90565b6103ab806101a56000396000f3fe608060405260043610610057576000357c0100000000000000000000000000000000000000000000000000000000900463ffffffff16806317d7de7c1461005c5780639b96eece146100ec578063a9059cbb14610151575b600080fd5b34801561006857600080fd5b506100716101ac565b6040518080602001828103825283818151815260200191508051906020019080838360005b838110156100b1578082015181840152602081019050610096565b50505050905090810190601f1680156100de5780820380516001836020036101000a031916815260200191505b509250505060405180910390f35b3480156100f857600080fd5b5061013b6004803603602081101561010f57600080fd5b81019080803573ffffffffffffffffffffffffffffffffffffffff16906020019092919050505061024e565b6040518082815260200191505060405180910390f35b34801561015d57600080fd5b506101aa6004803603604081101561017457600080fd5b81019080803573ffffffffffffffffffffffffffffffffffffffff16906020019092919080359060200190929190505050610296565b005b606060018054600181600116156101000203166002900480601f0160208091040260200160405190810160405280929190818152602001828054600181600116156101000203166002900480156102445780601f1061021957610100808354040283529160200191610244565b820191906000526020600020905b81548152906001019060200180831161022757829003601f168201915b5050505050905090565b60008060008373ffffffffffffffffffffffffffffffffffffffff1673ffffffffffffffffffffffffffffffffffffffff168152602001908152602001600020549050919050565b806000803373ffffffffffffffffffffffffffffffffffffffff1673ffffffffffffffffffffffffffffffffffffffff16815260200190815260200160002054101515156102e357600080fd5b806000803373ffffffffffffffffffffffffffffffffffffffff1673ffffffffffffffffffffffffffffffffffffffff16815260200190815260200160002060008282540392505081905550806000808473ffffffffffffffffffffffffffffffffffffffff1673ffffffffffffffffffffffffffffffffffffffff16815260200190815260200160002060008282540192505081905550505056fea165627a7a723058204539d573f71bd4a61683319901c541c6f5034e3a4fd9861cd608f3398c77da550029",
  "source": "pragma solidity >=0.4.21 <0.6.0;\n\ncontract SimpleToken {\n\tmapping(address => uint256) private balanceOf;\n\tstring private name;\n\t\n\tconstructor (uint256 _initialSupply, string memory _name) public {\n\t\tbalanceOf[msg.sender] = _initialSupply;\n\t\tname = _name;\t\t\n\t}\n\n\tfunction transfer(address _to, uint256 _amount) public {\n\t\trequire(balanceOf[msg.sender] >= _amount);\n\t\tbalanceOf[msg.sender] -= _amount;\n\t\tbalanceOf[_to] += _amount;\n\t}\n\n\tfunction getBalanceOf(address _holder) public view returns(uint256) {\n\t\treturn balanceOf[_holder];\n\t}\n\n\tfunction getName() public view returns(string memory){\n\t\treturn name;\n\t}\n} \n",
  "sourcePath": "/Users/omarmohamed/development/blockchain-training/contracts/SimpleToken.sol",
  "compiler": {
    "name": "solc",
    "version": "0.5.0+commit.1d4f565a.Emscripten.clang"
  },
  "schemaVersion": "3.0.1",
  "updatedAt": "2019-01-25T09:36:39.266Z",
  "devdoc": {
    "methods": {}
  },
  "userdoc": {
    "methods": {}
  }
}